:020000040000fa
:080000000002040000000000f2
:020000040000fa
:100400004f8620000e7f22000e01880000000000b1
:100410000c00070040f02100010020001f00070031
:10042000000020000000e000020032000000020096
:1004300000000000d81a0200000000000040da00ae
:100440000000fe004440a90060b020000000e00071
:100450000300320000002000a00188004440a800f2
:1004600000000600f03fb1000180b1000600350039
:10047000ee03090000000000403fb1000180b10020
:10048000fbff3d001000b000203fb000020035002f
:1004900000800900000000000000060091018800b3
:1004a000800078000000eb0015003700e28040007b
:1004b00032a0b4009101ba00e280400032a0b40042
:1004c0009102ba00e280400032a0b4000002eb00ca
:1004d000472bde00f507b200602ce10004003a0073
:1004e0000059eb008301e900fdff3e0004003700e6
:1004f0006128e100010032000082eb0004000700e7
:100500001101ba000200e000e8ff3a000000060016
:100510003159ba008301e9000c0032002159ba00b8
:100520008301e900080032000400e00003003a0003
:10053000e280400032a0b400f5ff370011d9ba00c4
:100540008301e900faff3a008100e800e180400001
:1005500032a0b40000000600889fbe008a9fbe0043
:10056000010578000100e0000400350008003c00af
:100570000000e0002000320005003700600010009d
:10058000e080180002003b0001f02c001a00370048
:100590000004be006011b8006b0920000982cf0082
:1005a000020039000882cf000441b00069425200c5
:1005b0000e00320008003b0082817100610164007e
:1005c0008904d1000884d3008b05e8000442e800c8
:1005d000f9ff3a00050037000804440089844c0004
:1005e0008b05e9000442e900fbff3a00c200070066
:1005f0000af0a70001f0a0004f05be004f04be00a6
:100600000000060003f0a200889fbe008a9fbe0083
:100610008c1f7800de000700e50033006450e10025
:100620004f0032006420e1005200320003826c006f
:1006300007003b000905d0000306d000820f5400dc
:100640000c065d00020039000200320089017800ca
:10065000030678008582550004003d000003fd007c
:100660008103fd008502ea008b854200840f720041
:1006700002003b0060001000e08018006011b8002c
:100680000005eb007a28e1000a0039000600780036
:10069000c75ddd00f707b200878075002d003700c9
:1006a000828171000a017800610560008180d100bb
:1006b0000080d3008502e900f9ff3b0006044000fa
:1006c0008784480002003b0060041400e0841c00a2
:1006d0000988a300070032008a81710082817100bd
:1006e000610164008904d1000884d3008b05e8000f
:1006f000170037000978a30013003a000b00e00050
:10070000130034008b05e9000804440089844c0080
:100710000a4474000978a3000d003a000b00e000c1
:10072000070034008b05e9000804440089844c006c
:1007300001003a000b0020000978a300f7ff320007
:100740000001eb0002003700828171000a0178008d
:10075000690007000cf0a70001f0a0009d00370021
:100760006420e10002003a00838f6c009d0033009a
:100770000801be000200be0096003700889fbe0040
:100780008a9fbe008c1f780081000700880033001c
:1007900003866c006450e1002e0032006420e1000a
:1007a000330032006150e1002f0032006120e1008f
:1007b0003100320085855500eb07b00009002000ac
:1007c00008042000050037000804440089844c0018
:1007d0000a0031000603430087834b0000015300e9
:1007e00081815b00f8ff33000203be000800a00017
:1007f0000804440089844c00f6ff3900c639dd0046
:100800008301730001003200130020008904d1002d
:100810000884d3000998a300050032000800a7004f
:100820000300a0008904d1000884d3008b05e800f0
:100830008904d1000884d3000001eb000281d200ba
:100840002d00070001f0a1000cf0a70001f0a000ae
:10085000600037006420e100620032000801be0041
:100860000200be00f7ff37006120e1005d003200aa
:100870006000b800f3ff37000000200001f82700f7
:10088000f0ff370014002000590037000001be00bf
:10089000720007000470a70003f0a10003f8a30092
:1008a00013003a006509b10010003200090035005c
:1008b0006928e10002003500010028000000050061
:1008c00000004000818048008502e900fcff3a00fa
:1008d00000000600f88f4200050035008100d100bd
:1008e0000080d3008502e800fcff3a00000006000b
:1008f0008000eb00000005008100200061805500b1
:100900000b003d000b00200061fe2f000100e10004
:100910001d00340082817100610164008904d100ee
:100920000884d3000000e800faff3a0071002000bc
:1009300061006400030070000200600009003200e2
:1009400061044400e0844c000988a50005003200e1
:100950008b05e8006808e10002003a008904d10034
:100960000884d300f20f20000258e10005003d008a
:10097000c75ddd00f907b2008980750008007800c6
:10098000000006000bf827008b007800000005002f
:100990000004be00310007000003be000405be00d5
:1009a0000200be002d000700844f75000000060005
:1009b0000200be006450e100050036006420e10042
:1009c000020036000968a30001003a000800be00da
:1009d0000160a0004f0678004f05be004f04be0026
:1009e00000000600f0ff2f00f1ff2700f9ff37009d
:1009f000889fbe008a9fbe00841f7800e4ff070026
:100a00004f00780011003300f0ff2f00838f6c003f
:100a100006003b00040565000a00a7000800370037
:100a200009f0a6001000200008003700820f5400d3
:100a3000838f5c00030039001000200001003e009d
:100a40000000200009f0a7000000ea004f05be00ea
:100a50004f04be000000e00000000600c70ade00f0
:100a6000f107b200f50fb20008003200e1cf4200fa
:100a7000020032000170a00024000500810f700008
:100a8000010032000408050044000500810f7000d9
:100a900002003a00140005008502e9000000400051
:100aa00081c04800fcff3b000170a000240005004d
:020000040000fa
:10000800ce100000ce100000ce100000ce10000070
:10001800ce100000ce100000ce100000ce10000060
:10002800ce100000ce100000ce100000ce10000050
:10003800ce100000ce100000ce100000ce10000040
:020000040000fa
:020000040000fa
:100ab000556e0000686100006e6400006c65000007
:100ac00064200000696e000074650000727200000e
:100ad00075700000742c000020000000756e00008e
:100ae0006b6e00006f7700006e0000005049000040
:100af00043320000344800004a3100003238000020
:100b00004750000035300000320000004131000045
:100b100000410000320000004133000000440000aa
:100b2000657600006963000065200000494400000c
:100b3000203d0000200000002028000000290000c7
:100b40002c200000726500007669000073690000c7
:100b50006f6e000020000000290a0000000a00005b
:100b60000a2a00002a2a00002a2a00002a2a000055
:100b70002a2a00002a2a00002a2a00002a2a000025
:100b80002a2a00002a2a00002a2a00002a2a000015
:100b90002a2a00002a2a00002a2a00002a2a000005
:100ba0002a2a00002a2a00002a2a00002a2a0000f5
:100bb0002a2a00002a2a00002a2a00002a2a0000e5
:100bc0002a2a00002a2a00002a2a00002a0a0000f5
:100bd0002a20000057410000524e0000494e0000fc
:100be000472000002d200000746800006973000099
:100bf00020700000726f000067720000616d0000dd
:100c00002077000061730000206300006f6d00001a
:100c1000706900006c65000064200000666f0000d1
:100c200072200000746800006520000077720000e8
:100c30006f6e000067200000202a00000a2a0000d2
:100c40002063000068690000702e0000205400003e
:100c50006869000073200000707200006f67000078
:100c6000726100006d2000006d61000079200000bd
:100c7000707200006f640000756300006520000062
:100c8000756e0000657800007065000063740000f8
:100c9000656400002062000065680000766900005d
:100ca0006f720000212000002a0a00002a200000a4
:100cb000456400006974000020740000686500004d
:100cc000206800006561000064650000722000007b
:100cd000666900006c65000073200000746f0000fe
:100ce00020700000726f000070650000726c0000e0
:100cf0007920000064650000666900006e650000f0
:100d00002074000068690000732000006368000020
:100d100069700000202a00000a2a000020610000fb
:100d20006e640000207400006f200000696e0000f7
:100d30007375000072650000206300006f72000090
:100d40007265000063740000206f00007065000091
:100d500072610000746900006f6e00002e200000b8
:100d60002020000020200000202000002020000083
:100d70002020000020200000202000002020000073
:100d8000202000002a0a00002a2000002020000065
:100d90002020000020200000202000002020000053
:100da0002020000020200000202000002020000043
:100db0002020000020200000202000002020000033
:100dc0002020000020200000202000002020000023
:100dd0002020000020200000202000002020000013
:100de0002020000020200000202000002020000003
:100df000202a00000a2a0000204e00004f54000064
:100e0000453a000020490000662000007468000098
:100e10006973000020770000617300002063000008
:100e20006f6d0000706900006c65000064200000b8
:100e3000666f0000722000007468000065200000ea
:100e4000636f000072720000656300007420000090
:100e500063680000697000002c2000002020000062
:100e60002a0a00002a200000616e000064200000b1
:100e70006f6e00006c790000206f0000636300005b
:100e80007572000073200000617400002070000083
:100e90006f770000657200002d6f00006e2000006b
:100ea000286e00006f74000020640000757200005e
:100eb000696e000067200000612000004d430000c3
:100ec0004c5200002020000020200000202a0000ba
:100ed0000a2a00002072000065730000657400009b
:100ee000292c000020760000657200006966000071
:100ef0007920000074680000617400002041000047
:100f00005644000044200000616e00006420000090
:100f1000415600005353000020610000726500003c
:100f2000206300006f6e00006e65000063740000b7
:100f3000656400002e200000202000002a0a000026
:100f40002a2000004f6e0000207400006865000039
:100f500020500000494300003234000048330000b4
:100f60003247000050320000303200002c200000d8
:100f70006e6f000074200000636f00006e6e000052
:100f800065630000746900006e6700002041000086
:100f900056440000442000002020000020200000d3
:100fa0002020000020200000202a00000a2a000043
:100fb00020700000726f000064750000636500001f
:100fc000732000007468000069730000206d000049
:100fd000657300007361000067650000206f00000a
:100fe0006e6c000079200000617400002070000029
:100ff0006f770000657200002d750000702e0000f4
:1010000020200000202000002020000020200000e0
:1010100020200000202000002a0a00002a2a0000c8
:101020002a2a00002a2a00002a2a00002a2a000070
:101030002a2a00002a2a00002a2a00002a2a000060
:101040002a2a00002a2a00002a2a00002a2a000050
:101050002a2a00002a2a00002a2a00002a2a000040
:101060002a2a00002a2a00002a2a00002a2a000030
:101070002a2a00002a2a00002a2a00002a2a000020
:101080002a2a00002a2a00000a0000004661000007
:101090007374000020520000432000004f730000d2
:1010a000630a000000460000617300007420000025
:1010b00052430000204f00007363000020770000bf
:1010c0006974000068200000504c00004c0a0000c9
:1010d00000500000726900006d610000727900002c
:1010e000204f0000736300002028000058540000c7
:1010f0002c200000485300002c2000004543000035
:10110000290a000000500000726900006d610000b3
:1011100072790000204f0000736300002028000057
:10112000585400002c200000485300002c200000e0
:101130004543000029200000776900007468000022
:10114000205000004c4c00000a00000053650000d5
:10115000636f00006e64000061720000792000007f
:101160004f730000630a0000004c00006f7700001e
:10117000205000006f7700006572000020520000d0
:10118000432000004f730000630a00000046000087
:10119000617300007420000052430000204f0000e3
:1011a000736300002f310000360a00000046000083
:1011b000617300007420000052430000204f0000c3
:1011c000736300002f4e00000a000000556e0000ff
:1011d0006b6e00006f7700006e2000006f730000e0
:1011e000636900006c6c0000617400006f720000a5
:1011f0002074000079700000652e0000000a0000d5
:101200004465000076690000636500002068000006
:101210006173000020620000656500006e20000020
:10122000696e0000207300006c65000065700000ae
:10123000206d00006f640000650a0000000a0000d5
:1012400044650000766900006365000020680000c6
:101250006173000020620000656500006e200000e0
:10126000696e000020690000646c000065200000c9
:101270006d6f0000646500000a0000000a52000063
:101280006573000065740000206300006175000054
:10129000736500003a200000005000006f770000e6
:1012a000657200002d6f00006e2e00000a00000025
:1012b000536f0000667400007761000072650000e3
:1012c0002052000065730000657400002e0a0000c3
:1012d000005700006174000063680000646f000044
:1012e00067200000546900006d6500006f75000004
:1012f000743a0000200000000a0000004d43000086
:101300004c52000020610000737300006572000001
:10131000746900006f6e00002e0a00000042000099
:10132000726f0000776e00002d6f00007574000072
:101330002e0a0000005400007261000070200000be
:10134000436f00006e6600006c690000637400006b
:101350002e0a0000004900006c6c00006567000068
:10136000616c0000204300006f6e000064690000a3
:10137000746900006f6e00002e0a00000043000038
:101380006f6e000066690000677500007261000002
:10139000746900006f6e0000204d0000697300004a
:1013a0006d61000074630000682e00000a000000f8
:1013b000556e00006b6e00006f7700006e2000001d
:1013c0007265000073650000742e00000a000000c2
:1013d00045720000726f00007220000074720000fd
:1013e0006170000070650000643a00002000000099
:1013f00050720000696f000072690000747900008b
:101400003a200000002c0000205600006563000018
:10141000746f0000722000006e7500006d620000a5
:10142000657200003a200000000a00000a00000077
:101430000a0a0000596f0000757200002063000066
:101440006c6f0000636b000020630000686f000099
:10145000696300006520000066610000696c00009f
:1014600065640000207400006f200000696e0000b9
:1014700069740000696100006c6900007a65000011
:101480002c200000686100007665000020730000d9
:101490007769000074630000686500006420000044
:1014a000746f0000206900006e7400006572000017
:1014b0006e6100006c200000466100007374000043
:1014c00020520000432000006f7300006369000099
:1014d0006c6c0000617400006f720000202b000033
:1014e000504c00004c2e00000a43000068650000cc
:1014f000636b0000207900006f750000722000000f
:101500007365000074740000696e000067200000bd
:10151000666f000072200000746800006520000003
:10152000274300004c4f0000434b00005f43000086
:101530004f4e00004649000047270000206d000084
:1015400061630000726f00002e0a00005761000006
:1015500074630000682000007468000065200000cb
:10156000636f00006d700000696c00006572000020
:10157000206f00007574000070750000742000007a
:10158000776900006e6400006f770000207700002c
:10159000686500006e200000706900006332000082
:1015a000345f0000636c00006f6300006b66000036
:1015b00072650000712e0000632000006973000056
:1015c000206300006f6d0000706900006c65000012
:1015d000642c000020610000207700006172000090
:1015e0006e6900006e670000206d000065730000ea
:1015f00073610000676500000a770000696c0000f5
:101600006c200000746500006c6c00002079000004
:101610006f750000207400006865000020730000f2
:10162000656c0000656300007465000064200000c4
:10163000766100006c75000065200000666f000098
:1016400072200000274300004c4f0000434b000075
:101650005f4300004f4e000046490000472700004e
:101660002e0a0000496e0000204d0000504c000082
:10167000414200002c20000075730000652000002e
:10168000507200006f6a000065630000742d000056
:101690003e420000756900006c640000204f0000ad
:1016a00070740000696f00006e7300002d3e000032
:1016b000507200006f6a000065630000742c000027
:1016c00020740000686500006e200000636c00005c
:1016d000696300006b2000006f6e0000204d000069
:1016e000504c000041420000204300003330000015
:1016f0002074000061620000207400006f20000070
:10170000736500006520000069660000200a000083
:1017100074680000652000006d61000063720000c5
:101720006f200000697300002064000065660000ff
:10173000696e0000656400002074000068650000a8
:10174000726500002e200000496600002074000031
:1017500068650000206d000061630000726f00008a
:101760002069000073200000736500006c650000b4
:1017700063740000696e000067200000616e000065
:101780002065000078740000657200006e61000042
:101790006c20000063720000797300007461000027
:1017a0006c200000287400006865000020700000b4
:1017b000726900006d61000072790000206f000006
:1017c00073630000696c00006c610000746f0000be
:1017d000722900002c0a0000616e000064200000e5
:1017e000796f000075720000206200006f610000d8
:1017f00072640000206400006f6500007320000028
:101800006e6f0000742000006861000076650000c3
:1018100020610000206300007279000073740000f2
:10182000616c00002c200000796f00007520000022
:10183000776900006c6c0000206700006574000090
:101840002074000068690000732000006d650000ce
:101850007373000061670000652e00000a440000f9
:10186000656c00006574000065200000746800006d
:10187000652000006d610000637200006f200000b1
:1018800064650000666900006e690000746900000c
:101890006f6e000020660000726f00006d20000077
:1018a00074680000652000004d5000004c410000ad
:1018b00042200000707200006f6a00006563000043
:1018c0007420000069660000207900006f75000038
:1018d00020770000616e000074200000746f00002b
:1018e000207500007365000020740000686500002a
:1018f0002064000065660000617500006c740000e3
:10190000200a0000636c00006f6300006b20000081
:10191000636800006f69000063650000206f0000cd
:101920006620000046520000432000002b200000eb
:10193000504c00004c2e00000a5900006f7500004a
:10194000206d0000757300007420000072650000b7
:10195000636f00006d700000696c0000652000007e
:10196000616e00006420000072650000707200006b
:101970006f670000726100006d2000007769000051
:1019800074680000206100006e200000617000009b
:10199000707200006f7000007269000061740000d6
:1019a00065200000434c00004f4300004b5f0000e7
:1019b000434f00004e4600004947000020630000ee
:1019c000686f00006963000065200000666f00001a
:1019d000722000007468000069730000206300003a
:1019e0006f64000065200000746f00002065000037
:1019f0007865000063750000746500002e0a000021
:101a000000450000727200006f7200002069000043
:101a10006e200000433a00005c6d00006963000026
:101a2000726f000063680000697000005c6c000069
:101a3000696200005c6300006f6d00006d6f000064
:101a40006e5c00007069000063320000345f0000cb
:101a5000636c00006f6300006b660000726500003d
:101a6000712e0000632000006c6900006e650000ac
:101a700020310000393400003a20000041530000ba
:101a8000534500005254000028750000385f0000e4
:101a9000736f00007572000063650000203c000059
:101aa000203800002920000066610000696c0000f9
:101ab000656400002e0a000000000000554100008f
:101ac0005254000031200000706100007269000073
:101ad0007479000020650000727200006f720000cf
:101ae0000a0000005541000052540000312000005f
:101af00066720000616d0000696e000067200000e2
:101b000065720000726f0000720a0000005500004c
:101b10004152000054310000206f00007665000043
:101b200072720000756e0000206500007272000085
:101b30006f7200000a00000045720000726f000022
:101b400072200000696e0000204300003a5c000033
:101b50006d690000637200006f6300006869000037
:101b6000705c00006c690000625c0000636f000044
:101b70006d6d00006f6e00005c7000006963000016
:101b8000323400005f75000061720000742e0000a6
:101b9000632000006c6900006e65000020330000c7
:101ba000343100003a20000041530000534500004a
:101bb00052540000286600005f6200007267000057
:101bc000203c000020360000353500003335000091
:101bd0002e3500002920000066610000696c0000bd
:101be000656400002e0a00000045000072720000cb
:101bf0006f720000206900006e200000433a000070
:101c00005c6d000069630000726f00006368000093
:101c1000697000005c6c0000696200005c63000099
:101c20006f6d00006d6f00006e5c00007069000059
:101c300063320000345f00007561000072740000c0
:101c40002e630000206c0000696e0000652000001b
:101c500033380000383a00002041000053530000a0
:101c6000455200005428000075330000325f000028
:101c7000626100007564000052610000746500003c
:101c8000203e00003d2000003130000030300000d8
:101c90004c29000020660000616900006c650000ae
:101ca000642e00000a00000055410000525400005c
:101cb0003220000070610000726900007479000039
:101cc00020650000727200006f7200000a000000c0
:101cd000554100005254000032200000667200009e
:101ce000616d0000696e00006720000065720000f1
:101cf000726f0000720a000000550000415200009f
:101d000054320000206f00007665000072720000ff
:101d1000756e000020650000727200006f72000096
:101d20000a00000045720000726f0000722000007f
:101d3000696e0000204300003a5c00006d690000fd
:101d4000637200006f63000068690000705c00004f
:101d50006c690000625c0000636f00006d6d000044
:101d60006f6e00005c700000696300003234000098
:101d70005f75000061720000742e00006320000097
:101d80006c6900006e6500002037000036300000ee
:101d90003a20000041530000534500005254000017
:101da000286600005f62000072670000203c0000af
:101db0002036000035350000333500002e35000098
:101dc0002920000066610000696c00006564000065
:101dd0002e0a000000450000727200006f720000c1
:101de000206900006e200000433a00005c6d000096
:101df00069630000726f0000636800006970000092
:101e00005c6c0000696200005c6300006f6d0000a4
:101e10006d6f00006e5c00007069000063320000ae
:101e2000345f000075610000727400002e630000d2
:101e3000206c0000696e0000652000003830000052
:101e4000373a000020410000535300004552000083
:101e50005428000075330000325f0000626100000a
:101e6000756400005261000074650000203e0000af
:101e70003d20000031300000303000004c290000cf
:101e800020660000616900006c650000642e00009f
:101e90000a00000045720000726f0000722000000e
:101ea000696e0000204300003a5c00006d6900008c
:101eb000637200006f63000068690000705c0000de
:101ec0006c690000625c0000636f00006d6d0000d3
:101ed0006f6e00005c700000696300003234000027
:101ee0005f73000065720000696100006c2e0000e5
:101ef000632000006c6900006e6500002037000060
:101f0000393a0000204900006e760000616c000044
:101f10006964000020550000415200005400000098
:101f200030780000000500000302000001050000f9
:101f300003020000013200001e1400000a05000028
:101f40000302000001050000030200000100000080
:101f500050c3000030750000204e00001027000024
:101f600088130000b80b0000d0070000e803000051
:101f7000f40100002c010000c80000006400000013
:101f8000320000001e000000140000000a000000e3
:101f90000500000003000000020000000100000036
:101fa00045720000726f000072200000696e000030
:101fb000204300003a5c00006d690000637200007d
:101fc0006f63000068690000705c00006c690000cd
:101fd000625c0000636f00006d6d00006f6e0000ba
:101fe0005c70000069630000323400005f73000021
:101ff00065720000696100006c2e00006320000023
:102000006c6900006e650000203200003934000069
:102010003a200000496e0000766100006c69000003
:1020200064200000554100005254000000450000ab
:10203000727200006f720000206900006e200000c4
:10204000433a00005c6d000069630000726f00009d
:1020500063680000697000005c6c00006962000049
:102060005c6300006f6d00006d6f00006e5c00002f
:102070007069000063320000345f00007365000087
:1020800072690000616c00002e630000206c00008b
:10209000696e00006520000033330000333a000011
:1020a000204900006e760000616c00006964000049
:0c20b000205500004152000054000000c8
:020000040000fa
:1020bc000000fa000b00070000a8210061002000be
:1020cc0080428800914288006000b800a0428800dd
:1020dc00b1428800cde2a900090007000080fa0097
:1020ec00000006000000fa006960a900cfe2a80019
:1020fc00c9e2a9002d23a8000080fa000000060008
:10210c000000fa00a0428000b14280006100400053
:10211c00e0804800a0428800b1428800a2428000c2
:10212c00b34280008042800091428000800f5100b9
:10213c00818f590004003600050007006000b800cc
:10214c00a0428800b14288000080fa00000006001e
:10215c000200fa00cdc2bf008040eb00014f7800b6
:10216c000004e0000200350010c0b300004f7800fe
:10217c001e407800c700dd00cdc2bf000074a10076
:10218c0001407000cde2b7000080fa0000000600ac
:10219c003600f800809fbe00829fbe00849fbe0068
:1021ac00869fbe003400f80000002000a0018800cb
:1021bc000000fa00e185200000078000800878000c
:1021cc0080552800080007000080fa003400f90050
:1021dc004f03be004f02be004f01be004f00be00b9
:1021ec003600f900004006000200fa00000f7800eb
:1021fc00e04280000000e00003003a001e0078007e
:10220c00e04288000000fe000080fa00000006009a
:10221c000600fa0010079800210798001e00900095
:10222c00000f78001e009000ae0090004008de0009
:10223c000100200032e0b7001e0078001080ba00c8
:10224c0001002000c001dd00020020001e0078000b
:10225c001000ba00010020000000710081807100a4
:10226c000080fa00000006001200fa0000002000b6
:10227c00f10f2000e6ff0700500798006107980057
:10228c0020002000f10f2000e1ff0700300798002c
:10229c004107980010c0b30040479800e056280052
:1022ac0010079800e0562800000f78005e0190009f
:1022bc00ee019000d067200001002000800f51003b
:1022cc00818f590003003a006057280010079800ce
:1022dc00020037000040eb00404798003e009000a1
:1022ec00ce00900070079800010f9800200023008a
:1022fc00010020007e0190008e099000800f51009b
:10230c00818f5900120032003000230001002000a0
:10231c007e0190008e099000800f5100818f590032
:10232c000e00320010002300010020007e019000fe
:10233c008e099000800f5100818f590001003200ee
:10234c000800370060582800000f7800050037009f
:10235c0090582800000f780002003700c058280061
:10236c00000f7800f05828007c0107005e009000f8
:10237c00ee009000fc010700c0592800770107000f
:10238c001e00900075010700f0592800730107002a
:10239c003e009000ce009000f3010700c0592800c9
:1023ac006e0107001e0078006c010700c05a28005f
:1023bc006a0107004e4090000004e00002003a0061
:1023cc00f05a2800650107000080fa0000000600a2
:1023dc000400fa0043c7bf000080fb004400de008d
:1023ec0067406000004f78001e80fb0010079800cb
:1023fc001e009000e30f5000230032001e009000de
:10240c00e30f50000a003c001e009000e10f50004a
:10241c00170032001e009000e10f500017003c0026
:10242c001e0090000000e0000e0032002500370076
:10243c001e009000e50f5000190032001e009000a5
:10244c00e50f5000130035001e009000e60f500001
:10245c00160032001e009000e70f500016003200ec
:10246c0018003700608428003c0107001700370073
:10247c0030852800390107001400370090862800a9
:10248c00360107001100370030882800330107009f
:10249c000e003700608a2800300107000b0037005f
:1024ac00508b28002d01070008003700708c280085
:1024bc002a01070005003700708d2800270107004e
:1024cc0002003700608e280047ff07000080fa00ea
:1024dc00000006000200fa000040eb00004f7800fc
:1024ec0040c7bf00684060000004e00003003200f9
:1024fc00f08f2800190107004067a90040c7bf00f2
:10250c00644060000004e00003003200f0912800f9
:10251c00120107004047a900e09328000f010700b3
:10252c0040c7bf00614060000004e0000e003200b4
:10253c0010c0b300004f7800d094280007010700aa
:10254c004007a9004027a9000000eb00e0428800ea
:10255c000000eb0000438800e18520000000eb0048
:10256c00800878004a00370040c7bf000044b20022
:10257c000004e0000600320080952800f7000700f8
:10258c0010c0b300004f780040c7a90040e7a90075
:10259c0040c7bf00704060000004e0000d00320036
:1025ac0010c0b300004f780090962800eb00070095
:1025bc00004380000000e000020032000043800075
:1025cc00e6000700c0972800e40007004087a90038
:1025dc0040e7a90040c7bf0001c8b300014060003c
:1025ec000004e0000500320010c0b300004f78007a
:1025fc00e0972800d900070040e7a90040c7bf00ba
:10260c00624060000004e0000500320010c0b3001e
:10261c00004f7800f0982800d00007004027a90050
:10262c0041c7bf0001c8b300014060000004e000d6
:10263c000500320010c0b300004f7800b09928009c
:10264c00c600070041e7a90041c7bf000044b20023
:10265c000004e0000500320010c0b300004f780009
:10266c00b09a2800bd00070041c7a90041c7bf00b0
:10267c00624060000004e0000500320010c0b300ae
:10268c00004f7800f09b2800b40007004127a900f8
:10269c001e04e00002003a00809d2800af000700f5
:1026ac00e04280000000e0001a003200809e28000a
:1026bc00aa000700e0428000a8000700e085200087
:1026cc00100078000000e0000b003200809f280012
:1026dc00a2000700f04280004800de006f4060005e
:1026ec000a01070030a028009c000700f04280007f
:1026fc000074a1000501070050a1280097000700f5
:10270c000000eb00e0428800e18520000000eb00b7
:10271c0080087800d4fe07002dff07000080fa0027
:10272c00000006000000fa000080fa00000006001d
:10273c000200fa00000f78005dfe07000800070099
:10274c000040280031002000ff01070061ff070056
:10275c001e007800810007000080fa0000000600cf
:10276c000000fa00580507000080fa00000006007f
:10277c001000fa0020079800310798002e009000f6
:10278c00be0090003ef80700008fbe001e00be0089
:10279c00e00f5000e08f5800050035001e00be0011
:1027ac006af707006007980071079800150037005a
:1027bc001e007800610160006000b800030020007a
:1027cc0002007000838070001e01be008301d100e6
:1027dc000281d30002007000838070005bf7070059
:1027ec0060079800710798006e019000fe01900040
:1027fc006e009000fe00900080f7070060079800c4
:10280c00710798006e019000fe0190002e00900060
:10281c00be00900078f707000200200003f02300b0
:10282c0015f807000000e000010035000400370037
:10283c001e00be00400798005107980006003700a4
:10284c0010002000010020003e014000ae81480035
:10285c0042079800530798004e009000de0090004d
:10286c000080fa00000006000c00fa001007980027
:10287c00210798001e009000ae00900000f80700a1
:10288c00000f78001e007800cf80de002ff70700c5
:10289c0040079800510798001e00e00007003d001b
:1028ac0002002000037824004e009000de0090000f
:1028bc0052f7070040079800510798004e0190000e
:1028cc00de0190001e009000ae0090004af7070059
:1028dc000200200003f02300e7f707000000e000ef
:1028ec0001003500030037001e0078003007980007
:1028fc00020037001e00e800300798003e009000f0
:10290c000080fa00000006000400fa00004f780076
:10291c0010438000100798001e009000e10f50003b
:10292c00040032001e009000e20f50000400320040
:10293c00060037001e407800a5010700050037008f
:10294c001e4078006602070002003700a0f4280041
:10295c0025fe07000080fa00000006000200fa00c5
:10296c00000f7800040037001e007800104078003b
:10297c00e5ff07001e0fe8001e00780010407800ed
:10298c000004e000f8ff3a000080fa0000000600a6
:10299c000c00fa002007980031079800024f9800ad
:1029ac003e0090000000e00003003a000000eb0045
:1029bc0050079800220037000000eb00000f780051
:1029cc000000eb00000f7800150037000e48900057
:1029dc000004e000030032003a0107002047980091
:1029ec00020037001e010700204798002e4090007f
:1029fc00ea4f50000d0032002e409000ed4f500079
:102a0c000a003200ae4090002e0090000148780081
:102a1c002e0090000000e800200798001e0fe80030
:102a2c003e0090009e0f1000e8ff3900ae009000b1
:102a3c000040eb00804878001e007800500798009a
:102a4c005e0090000080fa00000006000400fa000e
:102a5c00000f7800110798009e0090000041eb00d9
:102a6c001e007800caff07000080fa000000060074
:102a7c000400fa00000f7800110798009e009000e7
:102a8c0012c0b3001e007800c1ff07000080fa00de
:102a9c00000006000400fa00204798002e40900029
:102aac000080fb004400de006f4f600090c0b3005c
:102abc009e4f1000040036001e4078007043b0009a
:102acc0091ff0700030037001e4078000043b00060
:102adc008dff07002e4090006f4f600090c0b30038
:102aec009e4f1000040036001e4078007043b0006a
:102afc0085ff0700030037001e4078000043b0003c
:102b0c0081ff07000080fa00000006000200fa00b6
:102b1c00004f780000f9280090ff07001e40780055
:102b2c00dcff07000080fa00000006000400fa0039
:102b3c001007980000f9280088ff07001e0090007d
:102b4c004800de00004f78001e407800d1ff0700df
:102b5c001e009000004f78001e407800cdff07004b
:102b6c000080fa00000006000600fa00100798002a
:102b7c002107980000f9280078ff07001e0090003c
:102b8c00ae0090004808de0001002000004f7800e5
:102b9c001e407800bfff07001e009000ae009000a2
:102bac004008de0001002000004f78001e40780035
:102bbc00b8ff07001e009000ae0090004809dd0031
:102bcc004800de0000007100c808de00004f7800ed
:102bdc001e407800afff07001e009000004f7800e9
:102bec001e407800abff07000080fa0000000600d2
:102bfc000a00fa00004f98000040eb0010479800c4
:102c0c000e489000004f78008e80e80000c3b3009f
:102c1c00804878008e80e80000c3b3009040980094
:102c2c008e80e80000c3b300a04098008e80e800be
:102c3c000040eb00b040980070ccb3009e4f1000e9
:102c4c00090036000e80e8001040780080c0e800d3
:102c5c000e80e800014878009e40780080ccb300dc
:102c6c0000c05000004f780030c6b3009e4f1000db
:102c7c00090036000e80e800104078008040e80023
:102c8c000e80e800014878009e407800c0c9b3006f
:102c9c0000c04000004f78000040eb001047980047
:102cac00220037001e4090008080fb00b0f9280005
:102cbc00614078009e4f500019003e001e4090006d
:102ccc000080fb004200de00804078000180fb00a9
:102cdc008001e8000180fb008000e8000e80e80025
:102cec0000804000104178001e4090008080fb0066
:102cfc0030f9280061407800804041000e80e800e7
:102d0c0000804100014878001e4090008080fb004c
:102d1c00b0f92800e14078001e407800014f5000c7
:102d2c001e4090000040e800104798001e409000a4
:102d3c00e74f5000dbff36000e80e8008040eb00d0
:102d4c00314098000e80e80004ff07000080fa0074
:102d5c00000006000a00fa00400798000040eb0053
:102d6c00204798004e009000000f7800e3004700c9
:102d7c0000c3b30080487800e300470000c3b300f1
:102d8c0090409800e300470000c3b300a0409800b7
:102d9c00e300470000c3b300b0409800e3004700d5
:102dac0000c3b300c04098000040eb0020479800df
:102dbc00210037002e4090000080fb008000400076
:102dcc0080fa280000804000100078009e0f500010
:102ddc0016003e002e4090000080fb004200de00fa
:102dec008081fb008080fb0063004700614178001c
:102dfc002e4090000080fb00e300600030fa2800b9
:102e0c006140780080404100630047008171780088
:102e1c002e4090000080fb008000400080fa2800cb
:102e2c0000804000100078001e0f10002e40900013
:102e3c000040e800204798002e409000f34f5000cf
:102e4c00dcff3600630047008040eb0051409800e7
:102e5c0063004700c1fe07000080fa000000060076
:102e6c000400fa0010438000100798001e00900028
:102e7c00e10f5000040032001e009000e20f5000e1
:102e8c000500320008003700630007000080fb00db
:102e9c00000f780008003700230107000080fb00ba
:102eac00000f78000400370000fd2800cefc07005e
:102ebc000000eb00000f78001e0078000080fa0084
:102ecc00000006000200fa00e5ff0700004f780042
:102edc001e4078008cfe07001e80fb000080fa006c
:102eec00000006000400fa00104380001007980050
:102efc001e009000e10f5000040032001e009000f4
:102f0c00e20f500005003200080037003c000700bb
:102f1c000080fb00000f780008003700fc00070061
:102f2c000080fb00000f78000400370070012900be
:102f3c00adfc07000000eb00000f78001e007800cd
:102f4c000080fa00000006000400fa00008fbe00aa
:102f5c0010002000104388001e00be003a0007003d
:102f6c000080fa00000006000200fa0022c2bf0036
:102f7c00684060000004e000040032003011800062
:102f8c00004f7800e0d5280097fc070022c2bf0054
:102f9c00644060000004e000040032003011800046
:102fac00004f780020d728008ffc070022c2bf00fa
:102fbc00624060000004e000030032002222a900fd
:102fcc0070d8280088fc07000080fa00000006007a
:102fdc000200fa00004f78000100370048fc07009f
:102fec0023c2bf00624060000004e000fbff3a0017
:102ffc001e80fb00201188000080fa0000000600f3
:10300c000000fa0022c2bf00614060000080fb009b
:10301c000080fa00000006000000fa0001003700f2
:10302c0037fc070022c2bf00614060000004e000d2
:10303c00fbff3200ccff0700301180000080fb004a
:10304c000080fa00000006000e00fa00200798002d
:10305c0031079800416a20009140780000ceb300ff
:10306c0000c06000a040b300a4e6b700b16c200023
:10307c009140780000ceb30000c060003040b30037
:10308c00cbe6b7000000eb00001188002e0090008a
:10309c00be009000e00f5000e08f58000600350095
:1030ac002e009000be00900028f5070050079800f5
:1030bc0061079800170037002e009000be009000aa
:1030cc00610160006000b800030020000200700085
:1030dc00838070002e019000be0190008301d1000e
:1030ec000281d300020070008380700017f5070086
:1030fc0050079800610798005e019000ee01900067
:10310c005e009000ee0090003cf507005007980020
:10311c00610798005e019000ee01900000682900a4
:10312c0081c1240092f5070002002000031824003e
:10313c008ff507000200200003f823002ef507008e
:10314c00008fbe000040eb00104f980002f82f00db
:10315c00f37724001e00be00c7f507000000e00056
:10316c00010035000200370010c0b300104f98006a
:10317c00c1d928001e489000360007001e00be0072
:10318c00b9fd0700401188000000280000118800dc
:10319c0000402000101188000040eb00004f980008
:1031ac002e019000be019000703e20000100200016
:1031bc00800f5100818f59000200360010c0b300ff
:1031cc00004f980051df28000e48900021000700a6
:1031dc0000c42900010020000d0007002222a900d4
:1031ec00010037003011800022c2bf00684060002f
:1031fc000004e000fbff3a0022c2bf006440600004
:10320c000004e000f7ff3a000080fa00000006001e
:10321c000400fa00008fbe001e00be008ef40700f2
:10322c001e00be00c409de004c0add004401de00b5
:10323c0002017200a0428000b142800002004000f6
:10324c0083804800a0428800b14288000080fa00c8
:10325c00000006000400fa00004f780011079800e7
:10326c001e04e00002003a001e009000defb070086
:10327c000080fa00000006000200fa0032c2bf0013
:10328c00684060000004e00004003200b0118000cf
:10329c00004f780040e52800d3fb070032c2bf0086
:1032ac00644060000004e00004003200b0118000b3
:1032bc00004f780080e62800cbfb070032c2bf002d
:1032cc00624060000004e000030032003222a900da
:1032dc00d0e72800c4fb07000080fa0000000600bd
:1032ec000200fa00004f78000100370084fb070051
:1032fc0033c2bf00624060000004e000fbff3a00f4
:10330c001e80fb00a01188000080fa00000006005f
:10331c000000fa0032c2bf00614060000080fb0078
:10332c000080fa00000006000000fa0001003700df
:10333c0073fb070032c2bf00614060000004e00074
:10334c00fbff3200ccff0700b01180000080fb00b7
:10335c000080fa00000006000e00fa00200798001a
:10336c00310798000000eb00801188002e009000bf
:10337c00be009000e00f5000e08f580006003500b2
:10338c002e009000be00900070f4070050079800cb
:10339c0061079800170037002e009000be009000c7
:1033ac00610160006000b8000300200002007000a2
:1033bc00838070002e019000be0190008301d1002b
:1033cc000281d30002007000838070005ff407005c
:1033dc0050079800610798005e019000ee01900084
:1033ec005e009000ee00900084f4070050079800f7
:1033fc00610798005e019000ee01900000682900c2
:10340c0081c12400daf40700020020000318240014
:10341c00d7f407000200200003f8230076f407001d
:10342c00008fbe000040eb00104f980002f82f00f8
:10343c00f37724001e00be000ff507000000e0002b
:10344c00010035000200370010c0b300104f980087
:10345c0021e928001e4890007eff07001e00be00d8
:10346c0001fd0700c01188000000280080118800b1
:10347c0000402000901188000040eb00004f9800a5
:10348c002e019000be019000703e20000100200033
:10349c00800f5100818f59000200360010c0b3001c
:1034ac00004f9800b1ee28000e48900069ff07000d
:1034bc0000c429000100200055ff07003222a9009a
:1034cc0001003700b011800032c2bf0068406000bc
:1034dc000004e000fbff3a0032c2bf006440600011
:1034ec000004e000f7ff3a000080fa00000006003c
:1034fc000000fa001700070069c0a8008002200035
:10350c0001002000020007000080fa000000060005
:10351c000400fa00008fbe001e00be00cef30700b0
:10352c001e00be00c409de004c0add004401de00b2
:10353c0002017200a0428000b142800002004000f3
:10354c0083804800a0428800b14288000080fa00c5
:10355c00000006000000fa0069c0a900c982a8009a
:10356c002d83a8000080fa00000006000000fa007d
:10357c000600070069a0a8008002200001002000be
:10358c00e3ff07000080fa00000006000000fa00cc
:10359c0069a0a900c9a2a8002d63a8000080fa00a8
:1035ac00000006000600fa002a01070023010700ac
:1035bc001c01070015010700cdff0700ebff0700fa
:1035cc00cd22a8000000eb00100798000000370087
:1035dc001e009000200798002e009000e10f500074
:1035ec004a0032002e009000e10f50000700390015
:1035fc002e009000e20f5000840032002e0090004c
:10360c00e30f5000c1003200f1ff37000020210011
:10361c00a1072000beff0700cd22a900cd02a80003
:10362c0000202100a1072000b9ff0700cd02a9004e
:10363c00cce2a80000202100a1072000b4ff070065
:10364c00cce2a900ccc2a80000202100a1072000d8
:10365c00afff0700ccc2a900cd22a800cbc2bf008f
:10366c000042b2000004e00007003200cbc2bf00f1
:10367c00704060000004e000030032000000eb002a
:10368c0010079800d2ff3700cbc2bf000042b20037
:10369c000004e00007003200cbc2bf0070406000a5
:1036ac000004e00003003a0010002000100798000e
:1036bc00c7ff3700cbc2bf000042b2000004e000dd
:1036cc0007003a00cbc2bf00704060000004e0006d
:1036dc00030032002000200010079800bcff3700c8
:1036ec00cbc2bf000042b2000004e000b8ff3a00b9
:1036fc00cbc2bf00704060000004e000b4ff3a0091
:10370c003000200010079800b1ff37000090200017
:10371c00d10320007eff0700cd22a900cd02a80016
:10372c0000902000d103200079ff0700cd02a900f2
:10373c00cce2a80000902000d103200074ff070009
:10374c00cce2a900ccc2a80000902000d10320003c
:10375c006fff0700ccc2a900cd22a800cbc2bf00ce
:10376c000042b2000004e00007003200cbc2bf00f0
:10377c00704060000004e000030032000000eb0029
:10378c001007980092ff3700cbc2bf000042b20076
:10379c000004e00007003200cbc2bf0070406000a4
:1037ac000004e00003003a0010002000100798000d
:1037bc0087ff3700cbc2bf000042b2000004e0001c
:1037cc0007003a00cbc2bf00704060000004e0006c
:1037dc000300320020002000100798007cff370007
:1037ec00cbc2bf000042b2000004e00078ff3a00f8
:1037fc00cbc2bf00704060000004e00074ff3a00d0
:10380c00300020001007980071ff370000202100c5
:10381c00a10720003eff0700cd22a900ccc2a800c2
:10382c0000202100a107200039ff0700ccc2a9000d
:10383c00cce2a80000202100a107200034ff0700e3
:10384c00cce2a900cd02a80000202100a107200095
:10385c002fff0700cd02a900cd22a800cbc2bf00cc
:10386c000042b2000004e00007003200cbc2bf00ef
:10387c00704060000004e000030032000000eb0028
:10388c001007980052ff3700cbc2bf000042b200b5
:10389c000004e00007003200cbc2bf0070406000a3
:1038ac000004e00003003a0010002000100798000c
:1038bc0047ff3700cbc2bf000042b2000004e0005b
:1038cc0007003a00cbc2bf00704060000004e0006b
:1038dc000300320020002000100798003cff370046
:1038ec00cbc2bf000042b2000004e00038ff3a0037
:1038fc00cbc2bf00704060000004e00034ff3a000f
:10390c00300020001007980031ff37000090200095
:10391c00d1032000fefe0700cd22a900ccc2a800d6
:10392c0000902000d1032000f9fe0700ccc2a900b2
:10393c00cce2a80000902000d1032000f4fe070088
:10394c00cce2a900cd02a80000902000d1032000f9
:10395c00effe0700cd02a900cd22a800cbc2bf000c
:10396c000042b2000004e00007003200cbc2bf00ee
:10397c00704060000004e000030032000000eb0027
:10398c001007980012ff3700cbc2bf000042b200f4
:10399c000004e00007003200cbc2bf0070406000a2
:1039ac000004e00003003a0010002000100798000b
:1039bc0007ff3700cbc2bf000042b2000004e0009a
:1039cc0007003a00cbc2bf00704060000004e0006a
:1039dc00030032002000200010079800fcfe370086
:1039ec00cbc2bf000042b2000004e000f8fe3a0077
:1039fc00cbc2bf00704060000004e000f4fe3a004f
:103a0c003000200010079800f1fe37000000fa008b
:103a1c006b00a900cec2a900c8c2a9000080fa00a0
:103a2c00000006000000fa006ae0a900cee2a9003e
:103a3c00c8e2a9000080fa00000006000000fa00ad
:103a4c006ac0a900cf02a900c902a9000080fa002f
:103a5c00000006000000fa006aa0a900cf22a9000d
:103a6c00c922a9000080fa00000006000600fa0036
:103a7c0095000700004028003100200032fd0700af
:103a8c0020c72900d11124001007980021079800a5
:103a9c001e009000ae00900073fb0700000f780032
:103aac001e007800401188002062a9000080fa00f6
:103abc00000006000000fa00c2428000d3428000e1
:103acc000080eb008080eb00800f5100818f59004b
:103adc0016003200c0428000d142800061004000dc
:103aec00e0804800c0428800d1428800c242800079
:103afc00d3428000f0d3200031002000800f510011
:103b0c00818f5900090036000080eb008080eb00ab
:103b1c00c0428800d1428800d4ff070080a1280051
:103b2c008efb070076f90700feff37000080fa00d5
:103b3c00000006000400fa00204798000040eb004b
:103b4c00304798002e409000e74f500002003e0096
:103b5c0013c0b3003347980011d028003e409000aa
:103b6c003f000700ff3ffc00103a8000000f780078
:103b7c002e409000674060000080fb0067006000f2
:103b8c00c800dd00f08f2f001e0f60001e8f70002c
:103b9c001e00a0000e0078000000e8001040780025
:103bac000081fb0081072000a00920003374200055
:103bbc008149780080497800824978000e007800ad
:103bcc00104078000081fb0061042000700520008b
:103bdc00237420008149780080497800824978005c
:103bec000000fc0001003700b2ff070042c7bf0015
:103bfc00614060000004e000fbff3a002e409000a2
:103c0c00e14f5000050032002e409000e34f500071
:103c1c0008003a0001003700a6ff070042c7bf00aa
:103c2c000042b2000004e000fbff3200010037004c
:103c3c00a0ff070043c7bf000080fb004400de006c
:103c4c00674060008080fb002e4090000080fb00ed
:103c5c00808f5000f6ff3a000080fa00000006004a
:103c6c000400fa00004f7800110798001e04e000d1
:103c7c0002003a001e0090005bf907000080fa0079
:103c8c00000006000000fa000080fa0000000600a8
:103c9c000000fa0020c0b300a6ff07000080fa0065
:103cac00000006000000fa000040eb00a1ff070036
:103cbc0048c7bf0001ccb3000140600048e7b70023
:103ccc000080fa00000006000000fa000040eb0043
:103cdc0098ff0700817420009140780000ccb3005d
:103cec0000c06000d1c2b3000140700048e7b700cb
:103cfc00417420009140780000ceb30000c06000f9
:103d0c006040b30044e7b700313a800000e02f0078
:103d1c0000806000910b200001007000303a880098
:103d2c0044c7bf00f043b20044e7b70010c0b30073
:103d3c0080ff07000080fa00000006000000fa0077
:103d4c000040eb007bff070041742000914078009d
:103d5c0000ceb30000c060000024a00044e7b70010
:103d6c00313a800000e02f00008060000108200044
:103d7c0001007000303a880044c7bf00f043b20025
:103d8c0044e7b70030c0b3006aff07000080fa00b8
:103d9c00000006000000fa000040eb0065ff070081
:103dac00417420009140780000ceb30000c0600048
:103dbc0044e7b700313a800000e02f00008060003b
:103dcc006102200001007000303a880044c7bf0037
:103ddc00f043b20044e7b70030c0b30055ff070012
:103dec000080fa00000006000000fa0020c0b300ba
:0c3dfc0050ff07000080fa0000000600e5
:020000040000fa
:103e080058080000040000000000000050080000ee
:103e18000800000000000000620800000200000026
:0c3e28000200000001000000000000008b
:00000001FF
